{
  "address": "0x966372b4CD856A0E231490893E39cF94Ff1dF602",
  "abi": [
    {
      "anonymous": false,
      "inputs": [
        {
          "indexed": true,
          "internalType": "address",
          "name": "executor",
          "type": "address"
        },
        {
          "indexed": false,
          "internalType": "uint256",
          "name": "at",
          "type": "uint256"
        }
      ],
      "name": "Initialized",
      "type": "event"
    },
    {
      "anonymous": false,
      "inputs": [
        {
          "indexed": true,
          "internalType": "address",
          "name": "user",
          "type": "address"
        },
        {
          "indexed": false,
          "internalType": "uint256",
          "name": "reward",
          "type": "uint256"
        }
      ],
      "name": "RewardAdded",
      "type": "event"
    },
    {
      "anonymous": false,
      "inputs": [
        {
          "indexed": true,
          "internalType": "address",
          "name": "user",
          "type": "address"
        },
        {
          "indexed": false,
          "internalType": "uint256",
          "name": "reward",
          "type": "uint256"
        }
      ],
      "name": "RewardPaid",
      "type": "event"
    },
    {
      "anonymous": false,
      "inputs": [
        {
          "indexed": true,
          "internalType": "address",
          "name": "user",
          "type": "address"
        },
        {
          "indexed": false,
          "internalType": "uint256",
          "name": "amount",
          "type": "uint256"
        }
      ],
      "name": "Staked",
      "type": "event"
    },
    {
      "anonymous": false,
      "inputs": [
        {
          "indexed": true,
          "internalType": "address",
          "name": "user",
          "type": "address"
        },
        {
          "indexed": false,
          "internalType": "uint256",
          "name": "amount",
          "type": "uint256"
        }
      ],
      "name": "Withdrawn",
      "type": "event"
    },
    {
      "inputs": [
        {
          "internalType": "uint256",
          "name": "amount",
          "type": "uint256"
        }
      ],
      "name": "allocateSeigniorage",
      "outputs": [],
      "stateMutability": "nonpayable",
      "type": "function"
    },
    {
      "inputs": [
        {
          "internalType": "address",
          "name": "account",
          "type": "address"
        }
      ],
      "name": "balanceOf",
      "outputs": [
        {
          "internalType": "uint256",
          "name": "",
          "type": "uint256"
        }
      ],
      "stateMutability": "view",
      "type": "function"
    },
    {
      "inputs": [],
      "name": "brrrr",
      "outputs": [
        {
          "internalType": "contract IERC20",
          "name": "",
          "type": "address"
        }
      ],
      "stateMutability": "view",
      "type": "function"
    },
    {
      "inputs": [
        {
          "internalType": "uint256",
          "name": "",
          "type": "uint256"
        }
      ],
      "name": "brrrrbankHistory",
      "outputs": [
        {
          "internalType": "uint256",
          "name": "time",
          "type": "uint256"
        },
        {
          "internalType": "uint256",
          "name": "rewardReceived",
          "type": "uint256"
        },
        {
          "internalType": "uint256",
          "name": "rewardPerShare",
          "type": "uint256"
        }
      ],
      "stateMutability": "view",
      "type": "function"
    },
    {
      "inputs": [
        {
          "internalType": "address",
          "name": "member",
          "type": "address"
        }
      ],
      "name": "canClaimReward",
      "outputs": [
        {
          "internalType": "bool",
          "name": "",
          "type": "bool"
        }
      ],
      "stateMutability": "view",
      "type": "function"
    },
    {
      "inputs": [
        {
          "internalType": "address",
          "name": "member",
          "type": "address"
        }
      ],
      "name": "canWithdraw",
      "outputs": [
        {
          "internalType": "bool",
          "name": "",
          "type": "bool"
        }
      ],
      "stateMutability": "view",
      "type": "function"
    },
    {
      "inputs": [],
      "name": "claimReward",
      "outputs": [],
      "stateMutability": "nonpayable",
      "type": "function"
    },
    {
      "inputs": [
        {
          "internalType": "address",
          "name": "member",
          "type": "address"
        }
      ],
      "name": "earned",
      "outputs": [
        {
          "internalType": "uint256",
          "name": "",
          "type": "uint256"
        }
      ],
      "stateMutability": "view",
      "type": "function"
    },
    {
      "inputs": [],
      "name": "epoch",
      "outputs": [
        {
          "internalType": "uint256",
          "name": "",
          "type": "uint256"
        }
      ],
      "stateMutability": "view",
      "type": "function"
    },
    {
      "inputs": [],
      "name": "exit",
      "outputs": [],
      "stateMutability": "nonpayable",
      "type": "function"
    },
    {
      "inputs": [],
      "name": "getBrrrrPrice",
      "outputs": [
        {
          "internalType": "uint256",
          "name": "",
          "type": "uint256"
        }
      ],
      "stateMutability": "view",
      "type": "function"
    },
    {
      "inputs": [
        {
          "internalType": "address",
          "name": "member",
          "type": "address"
        }
      ],
      "name": "getLastSnapshotIndexOf",
      "outputs": [
        {
          "internalType": "uint256",
          "name": "",
          "type": "uint256"
        }
      ],
      "stateMutability": "view",
      "type": "function"
    },
    {
      "inputs": [
        {
          "internalType": "contract IERC20",
          "name": "_token",
          "type": "address"
        },
        {
          "internalType": "uint256",
          "name": "_amount",
          "type": "uint256"
        },
        {
          "internalType": "address",
          "name": "_to",
          "type": "address"
        }
      ],
      "name": "governanceRecoverUnsupported",
      "outputs": [],
      "stateMutability": "nonpayable",
      "type": "function"
    },
    {
      "inputs": [
        {
          "internalType": "contract IERC20",
          "name": "_brrrr",
          "type": "address"
        },
        {
          "internalType": "contract IERC20",
          "name": "_share",
          "type": "address"
        },
        {
          "internalType": "contract ITreasury",
          "name": "_treasury",
          "type": "address"
        }
      ],
      "name": "initialize",
      "outputs": [],
      "stateMutability": "nonpayable",
      "type": "function"
    },
    {
      "inputs": [],
      "name": "initialized",
      "outputs": [
        {
          "internalType": "bool",
          "name": "",
          "type": "bool"
        }
      ],
      "stateMutability": "view",
      "type": "function"
    },
    {
      "inputs": [],
      "name": "latestSnapshotIndex",
      "outputs": [
        {
          "internalType": "uint256",
          "name": "",
          "type": "uint256"
        }
      ],
      "stateMutability": "view",
      "type": "function"
    },
    {
      "inputs": [
        {
          "internalType": "address",
          "name": "",
          "type": "address"
        }
      ],
      "name": "members",
      "outputs": [
        {
          "internalType": "uint256",
          "name": "lastSnapshotIndex",
          "type": "uint256"
        },
        {
          "internalType": "uint256",
          "name": "rewardEarned",
          "type": "uint256"
        },
        {
          "internalType": "uint256",
          "name": "epochTimerStart",
          "type": "uint256"
        }
      ],
      "stateMutability": "view",
      "type": "function"
    },
    {
      "inputs": [],
      "name": "nextEpochPoint",
      "outputs": [
        {
          "internalType": "uint256",
          "name": "",
          "type": "uint256"
        }
      ],
      "stateMutability": "view",
      "type": "function"
    },
    {
      "inputs": [],
      "name": "operator",
      "outputs": [
        {
          "internalType": "address",
          "name": "",
          "type": "address"
        }
      ],
      "stateMutability": "view",
      "type": "function"
    },
    {
      "inputs": [],
      "name": "rewardLockupEpochs",
      "outputs": [
        {
          "internalType": "uint256",
          "name": "",
          "type": "uint256"
        }
      ],
      "stateMutability": "view",
      "type": "function"
    },
    {
      "inputs": [],
      "name": "rewardPerShare",
      "outputs": [
        {
          "internalType": "uint256",
          "name": "",
          "type": "uint256"
        }
      ],
      "stateMutability": "view",
      "type": "function"
    },
    {
      "inputs": [
        {
          "internalType": "uint256",
          "name": "_withdrawLockupEpochs",
          "type": "uint256"
        },
        {
          "internalType": "uint256",
          "name": "_rewardLockupEpochs",
          "type": "uint256"
        }
      ],
      "name": "setLockUp",
      "outputs": [],
      "stateMutability": "nonpayable",
      "type": "function"
    },
    {
      "inputs": [
        {
          "internalType": "address",
          "name": "_operator",
          "type": "address"
        }
      ],
      "name": "setOperator",
      "outputs": [],
      "stateMutability": "nonpayable",
      "type": "function"
    },
    {
      "inputs": [],
      "name": "share",
      "outputs": [
        {
          "internalType": "contract IERC20",
          "name": "",
          "type": "address"
        }
      ],
      "stateMutability": "view",
      "type": "function"
    },
    {
      "inputs": [
        {
          "internalType": "uint256",
          "name": "amount",
          "type": "uint256"
        }
      ],
      "name": "stake",
      "outputs": [],
      "stateMutability": "nonpayable",
      "type": "function"
    },
    {
      "inputs": [],
      "name": "totalSupply",
      "outputs": [
        {
          "internalType": "uint256",
          "name": "",
          "type": "uint256"
        }
      ],
      "stateMutability": "view",
      "type": "function"
    },
    {
      "inputs": [],
      "name": "treasury",
      "outputs": [
        {
          "internalType": "contract ITreasury",
          "name": "",
          "type": "address"
        }
      ],
      "stateMutability": "view",
      "type": "function"
    },
    {
      "inputs": [
        {
          "internalType": "uint256",
          "name": "amount",
          "type": "uint256"
        }
      ],
      "name": "withdraw",
      "outputs": [],
      "stateMutability": "nonpayable",
      "type": "function"
    },
    {
      "inputs": [],
      "name": "withdrawLockupEpochs",
      "outputs": [
        {
          "internalType": "uint256",
          "name": "",
          "type": "uint256"
        }
      ],
      "stateMutability": "view",
      "type": "function"
    }
  ],
  "transactionHash": "0x0a93de68dc3c4dd249a9f8ab2cd51400c9a2f55e8073682761fbaa1f0d9c4b8d",
  "args": [],
  "numDeployments": 1,
  "solcInputHash": "be7b10f3a2d7048c64c26b11f6bac89b",
  "bytecode": "0x60806040526004805460ff60a01b1916905534801561001d57600080fd5b5061278d8061002d6000396000f3fe608060405234801561001057600080fd5b50600436106101ce5760003560e01c806354575af411610104578063a694fc3a116100a2578063c0c53b8b11610071578063c0c53b8b146104e1578063c5967c2614610526578063e9fad8ee1461052e578063f61d520514610536576101ce565b8063a694fc3a14610481578063a8d5fd651461049e578063b3ab15fb146104a6578063b88a802f146104d9576101ce565b806370a08231116100de57806370a08231146103f6578063714b465814610429578063900cf0cf1461045c57806397ffe1d714610464576101ce565b806354575af41461037a578063570ca735146103bd57806361d027b3146103ee576101ce565b80631e85cd65116101715780633de3c0da1161014b5780633de3c0da146103455780633f9e3f04146103625780634256d24c1461036a578063446a2ec814610372576101ce565b80631e85cd65146102fb5780632e1a7d4d146103035780632ffaaa0914610322576101ce565b806308ae4b0c116101ad57806308ae4b0c14610267578063158ef93e146102b857806318160ddd146102c057806319262d30146102c8576101ce565b80628cc262146101d3578063022ba18d14610218578063046335d014610220575b600080fd5b610206600480360360208110156101e957600080fd5b503573ffffffffffffffffffffffffffffffffffffffff1661053e565b60408051918252519081900360200190f35b6102066105cc565b6102536004803603602081101561023657600080fd5b503573ffffffffffffffffffffffffffffffffffffffff166105d2565b604080519115158252519081900360200190f35b61029a6004803603602081101561027d57600080fd5b503573ffffffffffffffffffffffffffffffffffffffff166106a6565b60408051938452602084019290925282820152519081900360600190f35b6102536106c7565b6102066106e8565b610253600480360360208110156102de57600080fd5b503573ffffffffffffffffffffffffffffffffffffffff166106ee565b6102066107ba565b6103206004803603602081101561031957600080fd5b50356107c0565b005b6103206004803603604081101561033857600080fd5b5080359060200135610bae565b61029a6004803603602081101561035b57600080fd5b5035610c8f565b610206610cbf565b610206610cd5565b610206610d71565b6103206004803603606081101561039057600080fd5b5073ffffffffffffffffffffffffffffffffffffffff813581169160208101359160409091013516610d84565b6103c5610f2e565b6040805173ffffffffffffffffffffffffffffffffffffffff9092168252519081900360200190f35b6103c5610f4a565b6102066004803603602081101561040c57600080fd5b503573ffffffffffffffffffffffffffffffffffffffff16610f66565b6102066004803603602081101561043f57600080fd5b503573ffffffffffffffffffffffffffffffffffffffff16610f8e565b610206610fb6565b6103206004803603602081101561047a57600080fd5b5035611021565b6103206004803603602081101561049757600080fd5b50356113bf565b6103c56116e4565b610320600480360360208110156104bc57600080fd5b503573ffffffffffffffffffffffffffffffffffffffff16611700565b6103206117b7565b610320600480360360608110156104f757600080fd5b5073ffffffffffffffffffffffffffffffffffffffff8135811691602081013582169160409091013516611aa3565b610206611ce9565b610320611d54565b6103c5611d67565b600080610549611d83565b604001519050600061055a84611ddb565b60409081015173ffffffffffffffffffffffffffffffffffffffff86166000908152600760205291909120600101549091506105c4906105be670de0b6b3a76400006105b86105a98787611e36565b6105b28a610f66565b90611eb2565b90611f2c565b90611fad565b949350505050565b600a5481565b600654604080517f900cf0cf000000000000000000000000000000000000000000000000000000008152905160009273ffffffffffffffffffffffffffffffffffffffff169163900cf0cf916004808301926020929190829003018186803b15801561063d57600080fd5b505afa158015610651573d6000803e3d6000fd5b505050506040513d602081101561066757600080fd5b5051600a5473ffffffffffffffffffffffffffffffffffffffff841660009081526007602052604090206002015461069e91611fad565b111592915050565b60076020526000908152604090208054600182015460029092015490919083565b60045474010000000000000000000000000000000000000000900460ff1681565b60015490565b600654604080517f900cf0cf000000000000000000000000000000000000000000000000000000008152905160009273ffffffffffffffffffffffffffffffffffffffff169163900cf0cf916004808301926020929190829003018186803b15801561075957600080fd5b505afa15801561076d573d6000803e3d6000fd5b505050506040513d602081101561078357600080fd5b505160095473ffffffffffffffffffffffffffffffffffffffff841660009081526007602052604090206002015461069e91611fad565b60095481565b6107c8612021565b1561081e576040517f08c379a00000000000000000000000000000000000000000000000000000000081526004018080602001828103825260268152602001806127326026913960400191505060405180910390fd5b610826612042565b1561087c576040517f08c379a00000000000000000000000000000000000000000000000000000000081526004018080602001828103825260268152602001806127326026913960400191505060405180910390fd5b600061088733610f66565b116108dd576040517f08c379a00000000000000000000000000000000000000000000000000000000081526004018080602001828103825260248152602001806125d16024913960400191505060405180910390fd5b338015610991576108ec6125af565b5073ffffffffffffffffffffffffffffffffffffffff811660009081526007602090815260409182902082516060810184528154815260018201549281019290925260020154918101919091526109428261053e565b602082015261094f610cbf565b815273ffffffffffffffffffffffffffffffffffffffff8216600090815260076020908152604091829020835181559083015160018201559101516002909101555b60008211610a0057604080517f08c379a000000000000000000000000000000000000000000000000000000000815260206004820152601c60248201527f427272727262616e6b3a2043616e6e6f74207769746864726177203000000000604482015290519081900360640190fd5b600660009054906101000a900473ffffffffffffffffffffffffffffffffffffffff1673ffffffffffffffffffffffffffffffffffffffff1663900cf0cf6040518163ffffffff1660e01b815260040160206040518083038186803b158015610a6857600080fd5b505afa158015610a7c573d6000803e3d6000fd5b505050506040513d6020811015610a9257600080fd5b505160095433600090815260076020526040902060020154610ab391611fad565b1115610b0a576040517f08c379a000000000000000000000000000000000000000000000000000000000815260040180806020018281038252602381526020018061263b6023913960400191505060405180910390fd5b610b126117b7565b610b1b82612063565b60408051838152905133917f7084f5476618d8e60b11ef0d7d3f06914655adb8793e28ff7f018d4c76d505d5919081900360200190a25050436000908152600360209081526040808320328452909152808220805460017fffffffffffffffffffffffffffffffffffffffffffffffffffffffffffffff0091821681179092553384529190922080549091169091179055565b60045473ffffffffffffffffffffffffffffffffffffffff163314610c1e576040517f08c379a00000000000000000000000000000000000000000000000000000000081526004018080602001828103825260258152602001806126166025913960400191505060405180910390fd5b808210158015610c2f575060388211155b610c84576040517f08c379a00000000000000000000000000000000000000000000000000000000081526004018080602001828103825260238152602001806126b56023913960400191505060405180910390fd5b600991909155600a55565b60088181548110610c9c57fe5b600091825260209091206003909102018054600182015460029092015490925083565b600854600090610cd0906001611e36565b905090565b600654604080517f4256d24c000000000000000000000000000000000000000000000000000000008152905160009273ffffffffffffffffffffffffffffffffffffffff1691634256d24c916004808301926020929190829003018186803b158015610d4057600080fd5b505afa158015610d54573d6000803e3d6000fd5b505050506040513d6020811015610d6a57600080fd5b5051905090565b6000610d7b611d83565b60400151905090565b60045473ffffffffffffffffffffffffffffffffffffffff163314610df4576040517f08c379a00000000000000000000000000000000000000000000000000000000081526004018080602001828103825260258152602001806126166025913960400191505060405180910390fd5b60055473ffffffffffffffffffffffffffffffffffffffff84811691161415610e7e57604080517f08c379a000000000000000000000000000000000000000000000000000000000815260206004820152600560248201527f6272727272000000000000000000000000000000000000000000000000000000604482015290519081900360640190fd5b60005473ffffffffffffffffffffffffffffffffffffffff84811691161415610f0857604080517f08c379a000000000000000000000000000000000000000000000000000000000815260206004820152600a60248201527f6272727272736861726500000000000000000000000000000000000000000000604482015290519081900360640190fd5b610f2973ffffffffffffffffffffffffffffffffffffffff8416828461211a565b505050565b60045473ffffffffffffffffffffffffffffffffffffffff1681565b60065473ffffffffffffffffffffffffffffffffffffffff1681565b73ffffffffffffffffffffffffffffffffffffffff1660009081526002602052604090205490565b73ffffffffffffffffffffffffffffffffffffffff1660009081526007602052604090205490565b600654604080517f900cf0cf000000000000000000000000000000000000000000000000000000008152905160009273ffffffffffffffffffffffffffffffffffffffff169163900cf0cf916004808301926020929190829003018186803b158015610d4057600080fd5b611029612021565b1561107f576040517f08c379a00000000000000000000000000000000000000000000000000000000081526004018080602001828103825260268152602001806127326026913960400191505060405180910390fd5b611087612042565b156110dd576040517f08c379a00000000000000000000000000000000000000000000000000000000081526004018080602001828103825260268152602001806127326026913960400191505060405180910390fd5b60045473ffffffffffffffffffffffffffffffffffffffff16331461114d576040517f08c379a00000000000000000000000000000000000000000000000000000000081526004018080602001828103825260258152602001806126166025913960400191505060405180910390fd5b600081116111bc57604080517f08c379a000000000000000000000000000000000000000000000000000000000815260206004820152601c60248201527f427272727262616e6b3a2043616e6e6f7420616c6c6f63617465203000000000604482015290519081900360640190fd5b60006111c66106e8565b1161121c576040517f08c379a00000000000000000000000000000000000000000000000000000000081526004018080602001828103825260308152602001806126d86030913960400191505060405180910390fd5b6000611226611d83565b604001519050600061125561124e61123c6106e8565b6105b886670de0b6b3a7640000611eb2565b8390611fad565b905061125f6125af565b5060408051606081018252438152602081018581529181018381526008805460018101825560009190915282517ff3f7a9fe364faab93b216da50a3214154f22a0a2b415b23a84c8169e8b636ee360039092029182015592517ff3f7a9fe364faab93b216da50a3214154f22a0a2b415b23a84c8169e8b636ee4840155517ff3f7a9fe364faab93b216da50a3214154f22a0a2b415b23a84c8169e8b636ee59092019190915560055461132a9073ffffffffffffffffffffffffffffffffffffffff163330876121a7565b60408051858152905133917fac24935fd910bc682b5ccb1a07b718cadf8cf2f6d1404c4f3ddc3662dae40e29919081900360200190a25050436000908152600360209081526040808320328452909152808220805460017fffffffffffffffffffffffffffffffffffffffffffffffffffffffffffffff00918216811790925533845291909220805490911690911790555050565b6113c7612021565b1561141d576040517f08c379a00000000000000000000000000000000000000000000000000000000081526004018080602001828103825260268152602001806127326026913960400191505060405180910390fd5b611425612042565b1561147b576040517f08c379a00000000000000000000000000000000000000000000000000000000081526004018080602001828103825260268152602001806127326026913960400191505060405180910390fd5b33801561152f5761148a6125af565b5073ffffffffffffffffffffffffffffffffffffffff811660009081526007602090815260409182902082516060810184528154815260018201549281019290925260020154918101919091526114e08261053e565b60208201526114ed610cbf565b815273ffffffffffffffffffffffffffffffffffffffff8216600090815260076020908152604091829020835181559083015160018201559101516002909101555b6000821161159e57604080517f08c379a000000000000000000000000000000000000000000000000000000000815260206004820152601960248201527f427272727262616e6b3a2043616e6e6f74207374616b65203000000000000000604482015290519081900360640190fd5b6115a782612242565b600660009054906101000a900473ffffffffffffffffffffffffffffffffffffffff1673ffffffffffffffffffffffffffffffffffffffff1663900cf0cf6040518163ffffffff1660e01b815260040160206040518083038186803b15801561160f57600080fd5b505afa158015611623573d6000803e3d6000fd5b505050506040513d602081101561163957600080fd5b505133600081815260076020908152604091829020600201939093558051858152905191927f9e71bc8eea02a63969f509818f2dafb9254532904319f9dbda79b67bd34a5f3d92918290030190a25050436000908152600360209081526040808320328452909152808220805460017fffffffffffffffffffffffffffffffffffffffffffffffffffffffffffffff0091821681179092553384529190922080549091169091179055565b60005473ffffffffffffffffffffffffffffffffffffffff1681565b60045473ffffffffffffffffffffffffffffffffffffffff163314611770576040517f08c379a00000000000000000000000000000000000000000000000000000000081526004018080602001828103825260258152602001806126166025913960400191505060405180910390fd5b600480547fffffffffffffffffffffffff00000000000000000000000000000000000000001673ffffffffffffffffffffffffffffffffffffffff92909216919091179055565b33801561186b576117c66125af565b5073ffffffffffffffffffffffffffffffffffffffff8116600090815260076020908152604091829020825160608101845281548152600182015492810192909252600201549181019190915261181c8261053e565b6020820152611829610cbf565b815273ffffffffffffffffffffffffffffffffffffffff8216600090815260076020908152604091829020835181559083015160018201559101516002909101555b336000908152600760205260409020600101548015611a9f57600660009054906101000a900473ffffffffffffffffffffffffffffffffffffffff1673ffffffffffffffffffffffffffffffffffffffff1663900cf0cf6040518163ffffffff1660e01b815260040160206040518083038186803b1580156118ec57600080fd5b505afa158015611900573d6000803e3d6000fd5b505050506040513d602081101561191657600080fd5b5051600a543360009081526007602052604090206002015461193791611fad565b111561198e576040517f08c379a00000000000000000000000000000000000000000000000000000000081526004018080602001828103825260218152602001806125f56021913960400191505060405180910390fd5b600660009054906101000a900473ffffffffffffffffffffffffffffffffffffffff1673ffffffffffffffffffffffffffffffffffffffff1663900cf0cf6040518163ffffffff1660e01b815260040160206040518083038186803b1580156119f657600080fd5b505afa158015611a0a573d6000803e3d6000fd5b505050506040513d6020811015611a2057600080fd5b50513360008181526007602052604081206002810193909355600190920191909155600554611a689173ffffffffffffffffffffffffffffffffffffffff909116908361211a565b60408051828152905133917fe2403640ba68fed3a2f88b7557551d1993f84b99bb10ff833f0cf8db0c5e0486919081900360200190a25b5050565b60045474010000000000000000000000000000000000000000900460ff1615611b2d57604080517f08c379a000000000000000000000000000000000000000000000000000000000815260206004820152601e60248201527f427272727262616e6b3a20616c726561647920696e697469616c697a65640000604482015290519081900360640190fd5b6005805473ffffffffffffffffffffffffffffffffffffffff8086167fffffffffffffffffffffffff000000000000000000000000000000000000000092831617909255600080548584169083161790556006805492841692909116919091179055611b976125af565b50604080516060810182524380825260006020808401828152848601838152600880546001810182559452855160039485027ff3f7a9fe364faab93b216da50a3214154f22a0a2b415b23a84c8169e8b636ee381019190915591517ff3f7a9fe364faab93b216da50a3214154f22a0a2b415b23a84c8169e8b636ee4830155517ff3f7a9fe364faab93b216da50a3214154f22a0a2b415b23a84c8169e8b636ee5909101556006600955600a91909155600480547fffffffffffffffffffffffff00000000000000000000000000000000000000007fffffffffffffffffffffff00ffffffffffffffffffffffffffffffffffffffff90911674010000000000000000000000000000000000000000171633908117909155845192835293519293927f25ff68dd81b34665b5ba7e553ee5511bf6812e12adb4a7e2c0d9e26b3099ce799281900390910190a250505050565b600654604080517fc5967c26000000000000000000000000000000000000000000000000000000008152905160009273ffffffffffffffffffffffffffffffffffffffff169163c5967c26916004808301926020929190829003018186803b158015610d4057600080fd5b611d65611d6033610f66565b6107c0565b565b60055473ffffffffffffffffffffffffffffffffffffffff1681565b611d8b6125af565b6008611d95610cbf565b81548110611d9f57fe5b90600052602060002090600302016040518060600160405290816000820154815260200160018201548152602001600282015481525050905090565b611de36125af565b6008611dee83610f8e565b81548110611df857fe5b906000526020600020906003020160405180606001604052908160008201548152602001600182015481526020016002820154815250509050919050565b600082821115611ea757604080517f08c379a000000000000000000000000000000000000000000000000000000000815260206004820152601e60248201527f536166654d6174683a207375627472616374696f6e206f766572666c6f770000604482015290519081900360640190fd5b508082035b92915050565b600082611ec157506000611eac565b82820282848281611ece57fe5b0414611f25576040517f08c379a00000000000000000000000000000000000000000000000000000000081526004018080602001828103825260218152602001806126946021913960400191505060405180910390fd5b9392505050565b6000808211611f9c57604080517f08c379a000000000000000000000000000000000000000000000000000000000815260206004820152601a60248201527f536166654d6174683a206469766973696f6e206279207a65726f000000000000604482015290519081900360640190fd5b818381611fa557fe5b049392505050565b600082820183811015611f2557604080517f08c379a000000000000000000000000000000000000000000000000000000000815260206004820152601b60248201527f536166654d6174683a206164646974696f6e206f766572666c6f770000000000604482015290519081900360640190fd5b43600090815260036020908152604080832032845290915290205460ff1690565b43600090815260036020908152604080832033845290915290205460ff1690565b33600090815260026020526040902054818110156120cc576040517f08c379a000000000000000000000000000000000000000000000000000000000815260040180806020018281038252603681526020018061265e6036913960400191505060405180910390fd5b6001546120d99083611e36565b6001556120e68183611e36565b336000818152600260205260408120929092559054611a9f9173ffffffffffffffffffffffffffffffffffffffff90911690845b6040805173ffffffffffffffffffffffffffffffffffffffff8416602482015260448082018490528251808303909101815260649091019091526020810180517bffffffffffffffffffffffffffffffffffffffffffffffffffffffff167fa9059cbb00000000000000000000000000000000000000000000000000000000179052610f299084906122a8565b6040805173ffffffffffffffffffffffffffffffffffffffff80861660248301528416604482015260648082018490528251808303909101815260849091019091526020810180517bffffffffffffffffffffffffffffffffffffffffffffffffffffffff167f23b872dd0000000000000000000000000000000000000000000000000000000017905261223c9085906122a8565b50505050565b60015461224f9082611fad565b6001553360009081526002602052604090205461226c9082611fad565b3360008181526002602052604081209290925590546122a59173ffffffffffffffffffffffffffffffffffffffff9091169030846121a7565b50565b606061230a826040518060400160405280602081526020017f5361666545524332303a206c6f772d6c6576656c2063616c6c206661696c65648152508573ffffffffffffffffffffffffffffffffffffffff166123809092919063ffffffff16565b805190915015610f295780806020019051602081101561232957600080fd5b5051610f29576040517f08c379a000000000000000000000000000000000000000000000000000000000815260040180806020018281038252602a815260200180612708602a913960400191505060405180910390fd5b60606105c4848460008585612394856124eb565b6123ff57604080517f08c379a000000000000000000000000000000000000000000000000000000000815260206004820152601d60248201527f416464726573733a2063616c6c20746f206e6f6e2d636f6e7472616374000000604482015290519081900360640190fd5b600060608673ffffffffffffffffffffffffffffffffffffffff1685876040518082805190602001908083835b6020831061246957805182527fffffffffffffffffffffffffffffffffffffffffffffffffffffffffffffffe0909201916020918201910161242c565b6001836020036101000a03801982511681845116808217855250505050505090500191505060006040518083038185875af1925050503d80600081146124cb576040519150601f19603f3d011682016040523d82523d6000602084013e6124d0565b606091505b50915091506124e08282866124f1565b979650505050505050565b3b151590565b60608315612500575081611f25565b8251156125105782518084602001fd5b816040517f08c379a00000000000000000000000000000000000000000000000000000000081526004018080602001828103825283818151815260200191508051906020019080838360005b8381101561257457818101518382015260200161255c565b50505050905090810190601f1680156125a15780820380516001836020036101000a031916815260200191505b509250505060405180910390fd5b6040518060600160405280600081526020016000815260200160008152509056fe427272727262616e6b3a20546865206d656d62657220646f6573206e6f74206578697374427272727262616e6b3a207374696c6c20696e20726577617264206c6f636b7570427272727262616e6b3a2063616c6c6572206973206e6f7420746865206f70657261746f72427272727262616e6b3a207374696c6c20696e207769746864726177206c6f636b7570427272727262616e6b3a20776974686472617720726571756573742067726561746572207468616e207374616b656420616d6f756e74536166654d6174683a206d756c7469706c69636174696f6e206f766572666c6f775f77697468647261774c6f636b757045706f6368733a206f7574206f662072616e6765427272727262616e6b3a2043616e6e6f7420616c6c6f63617465207768656e20746f74616c537570706c7920697320305361666545524332303a204552433230206f7065726174696f6e20646964206e6f742073756363656564436f6e747261637447756172643a206f6e6520626c6f636b2c206f6e652066756e6374696f6ea2646970667358221220775d883ad2f56dff80c15a462821c189f802a9348c7b4d7e698ac91b647282b664736f6c634300060c0033",
  "devdoc": {
    "kind": "dev",
    "methods": {},
    "version": 1
  },
  "userdoc": {
    "kind": "user",
    "methods": {},
    "version": 1
  },
  "storageLayout": {
    "storage": [
      {
        "astId": 3108,
        "contract": "contracts/Brrrrbank.sol:Brrrrbank",
        "label": "share",
        "offset": 0,
        "slot": "0",
        "type": "t_contract(IERC20)1180"
      },
      {
        "astId": 3110,
        "contract": "contracts/Brrrrbank.sol:Brrrrbank",
        "label": "_totalSupply",
        "offset": 0,
        "slot": "1",
        "type": "t_uint256"
      },
      {
        "astId": 3114,
        "contract": "contracts/Brrrrbank.sol:Brrrrbank",
        "label": "_balances",
        "offset": 0,
        "slot": "2",
        "type": "t_mapping(t_address,t_uint256)"
      },
      {
        "astId": 14271,
        "contract": "contracts/Brrrrbank.sol:Brrrrbank",
        "label": "_status",
        "offset": 0,
        "slot": "3",
        "type": "t_mapping(t_uint256,t_mapping(t_address,t_bool))"
      },
      {
        "astId": 3247,
        "contract": "contracts/Brrrrbank.sol:Brrrrbank",
        "label": "operator",
        "offset": 0,
        "slot": "4",
        "type": "t_address"
      },
      {
        "astId": 3250,
        "contract": "contracts/Brrrrbank.sol:Brrrrbank",
        "label": "initialized",
        "offset": 20,
        "slot": "4",
        "type": "t_bool"
      },
      {
        "astId": 3252,
        "contract": "contracts/Brrrrbank.sol:Brrrrbank",
        "label": "brrrr",
        "offset": 0,
        "slot": "5",
        "type": "t_contract(IERC20)1180"
      },
      {
        "astId": 3254,
        "contract": "contracts/Brrrrbank.sol:Brrrrbank",
        "label": "treasury",
        "offset": 0,
        "slot": "6",
        "type": "t_contract(ITreasury)12438"
      },
      {
        "astId": 3258,
        "contract": "contracts/Brrrrbank.sol:Brrrrbank",
        "label": "members",
        "offset": 0,
        "slot": "7",
        "type": "t_mapping(t_address,t_struct(Memberseat)3238_storage)"
      },
      {
        "astId": 3261,
        "contract": "contracts/Brrrrbank.sol:Brrrrbank",
        "label": "brrrrbankHistory",
        "offset": 0,
        "slot": "8",
        "type": "t_array(t_struct(BrrrrbankSnapshot)3245_storage)dyn_storage"
      },
      {
        "astId": 3263,
        "contract": "contracts/Brrrrbank.sol:Brrrrbank",
        "label": "withdrawLockupEpochs",
        "offset": 0,
        "slot": "9",
        "type": "t_uint256"
      },
      {
        "astId": 3265,
        "contract": "contracts/Brrrrbank.sol:Brrrrbank",
        "label": "rewardLockupEpochs",
        "offset": 0,
        "slot": "10",
        "type": "t_uint256"
      }
    ],
    "types": {
      "t_address": {
        "encoding": "inplace",
        "label": "address",
        "numberOfBytes": "20"
      },
      "t_array(t_struct(BrrrrbankSnapshot)3245_storage)dyn_storage": {
        "base": "t_struct(BrrrrbankSnapshot)3245_storage",
        "encoding": "dynamic_array",
        "label": "struct Brrrrbank.BrrrrbankSnapshot[]",
        "numberOfBytes": "32"
      },
      "t_bool": {
        "encoding": "inplace",
        "label": "bool",
        "numberOfBytes": "1"
      },
      "t_contract(IERC20)1180": {
        "encoding": "inplace",
        "label": "contract IERC20",
        "numberOfBytes": "20"
      },
      "t_contract(ITreasury)12438": {
        "encoding": "inplace",
        "label": "contract ITreasury",
        "numberOfBytes": "20"
      },
      "t_mapping(t_address,t_bool)": {
        "encoding": "mapping",
        "key": "t_address",
        "label": "mapping(address => bool)",
        "numberOfBytes": "32",
        "value": "t_bool"
      },
      "t_mapping(t_address,t_struct(Memberseat)3238_storage)": {
        "encoding": "mapping",
        "key": "t_address",
        "label": "mapping(address => struct Brrrrbank.Memberseat)",
        "numberOfBytes": "32",
        "value": "t_struct(Memberseat)3238_storage"
      },
      "t_mapping(t_address,t_uint256)": {
        "encoding": "mapping",
        "key": "t_address",
        "label": "mapping(address => uint256)",
        "numberOfBytes": "32",
        "value": "t_uint256"
      },
      "t_mapping(t_uint256,t_mapping(t_address,t_bool))": {
        "encoding": "mapping",
        "key": "t_uint256",
        "label": "mapping(uint256 => mapping(address => bool))",
        "numberOfBytes": "32",
        "value": "t_mapping(t_address,t_bool)"
      },
      "t_struct(BrrrrbankSnapshot)3245_storage": {
        "encoding": "inplace",
        "label": "struct Brrrrbank.BrrrrbankSnapshot",
        "members": [
          {
            "astId": 3240,
            "contract": "contracts/Brrrrbank.sol:Brrrrbank",
            "label": "time",
            "offset": 0,
            "slot": "0",
            "type": "t_uint256"
          },
          {
            "astId": 3242,
            "contract": "contracts/Brrrrbank.sol:Brrrrbank",
            "label": "rewardReceived",
            "offset": 0,
            "slot": "1",
            "type": "t_uint256"
          },
          {
            "astId": 3244,
            "contract": "contracts/Brrrrbank.sol:Brrrrbank",
            "label": "rewardPerShare",
            "offset": 0,
            "slot": "2",
            "type": "t_uint256"
          }
        ],
        "numberOfBytes": "96"
      },
      "t_struct(Memberseat)3238_storage": {
        "encoding": "inplace",
        "label": "struct Brrrrbank.Memberseat",
        "members": [
          {
            "astId": 3233,
            "contract": "contracts/Brrrrbank.sol:Brrrrbank",
            "label": "lastSnapshotIndex",
            "offset": 0,
            "slot": "0",
            "type": "t_uint256"
          },
          {
            "astId": 3235,
            "contract": "contracts/Brrrrbank.sol:Brrrrbank",
            "label": "rewardEarned",
            "offset": 0,
            "slot": "1",
            "type": "t_uint256"
          },
          {
            "astId": 3237,
            "contract": "contracts/Brrrrbank.sol:Brrrrbank",
            "label": "epochTimerStart",
            "offset": 0,
            "slot": "2",
            "type": "t_uint256"
          }
        ],
        "numberOfBytes": "96"
      },
      "t_uint256": {
        "encoding": "inplace",
        "label": "uint256",
        "numberOfBytes": "32"
      }
    }
  }
}